{
  "_format": "hh-sol-artifact-1",
  "contractName": "faucet",
  "sourceName": "contracts/faucet.sol",
  "abi": [
    {
      "inputs": [
        {
          "internalType": "address",
          "name": "faucetReserveAddress_",
          "type": "address"
        }
      ],
      "stateMutability": "nonpayable",
      "type": "constructor"
    },
    {
      "anonymous": false,
      "inputs": [
        {
          "indexed": false,
          "internalType": "address",
          "name": "from",
          "type": "address"
        },
        {
          "indexed": false,
          "internalType": "uint256",
          "name": "amount",
          "type": "uint256"
        }
      ],
      "name": "Deposit",
      "type": "event"
    },
    {
      "anonymous": false,
      "inputs": [
        {
          "indexed": false,
          "internalType": "uint256",
          "name": "orderId",
          "type": "uint256"
        },
        {
          "indexed": false,
          "internalType": "address",
          "name": "requestor",
          "type": "address"
        },
        {
          "indexed": false,
          "internalType": "uint256",
          "name": "amount",
          "type": "uint256"
        }
      ],
      "name": "OrderCreated",
      "type": "event"
    },
    {
      "inputs": [],
      "name": "donateFaucet",
      "outputs": [],
      "stateMutability": "payable",
      "type": "function"
    },
    {
      "inputs": [],
      "name": "faucetAmount",
      "outputs": [
        {
          "internalType": "uint256",
          "name": "",
          "type": "uint256"
        }
      ],
      "stateMutability": "view",
      "type": "function"
    },
    {
      "inputs": [],
      "name": "faucetReserve",
      "outputs": [
        {
          "internalType": "contract IERC20",
          "name": "",
          "type": "address"
        }
      ],
      "stateMutability": "view",
      "type": "function"
    },
    {
      "inputs": [],
      "name": "getBalance",
      "outputs": [
        {
          "internalType": "uint256",
          "name": "",
          "type": "uint256"
        }
      ],
      "stateMutability": "view",
      "type": "function"
    },
    {
      "inputs": [],
      "name": "getFaucet",
      "outputs": [],
      "stateMutability": "nonpayable",
      "type": "function"
    },
    {
      "inputs": [],
      "name": "lockTime",
      "outputs": [
        {
          "internalType": "uint256",
          "name": "",
          "type": "uint256"
        }
      ],
      "stateMutability": "view",
      "type": "function"
    },
    {
      "inputs": [
        {
          "internalType": "uint256",
          "name": "",
          "type": "uint256"
        }
      ],
      "name": "orderById",
      "outputs": [
        {
          "internalType": "address",
          "name": "requestor",
          "type": "address"
        },
        {
          "internalType": "uint256",
          "name": "amount",
          "type": "uint256"
        },
        {
          "internalType": "uint256",
          "name": "timestamp",
          "type": "uint256"
        }
      ],
      "stateMutability": "view",
      "type": "function"
    },
    {
      "inputs": [],
      "name": "orderIdTracker",
      "outputs": [
        {
          "internalType": "uint256",
          "name": "_value",
          "type": "uint256"
        }
      ],
      "stateMutability": "view",
      "type": "function"
    },
    {
      "inputs": [],
      "name": "owner",
      "outputs": [
        {
          "internalType": "address",
          "name": "",
          "type": "address"
        }
      ],
      "stateMutability": "view",
      "type": "function"
    },
    {
      "inputs": [
        {
          "internalType": "uint256",
          "name": "amount",
          "type": "uint256"
        }
      ],
      "name": "setFaucetAmount",
      "outputs": [],
      "stateMutability": "nonpayable",
      "type": "function"
    },
    {
      "inputs": [
        {
          "internalType": "uint256",
          "name": "time",
          "type": "uint256"
        }
      ],
      "name": "setLockTime",
      "outputs": [],
      "stateMutability": "nonpayable",
      "type": "function"
    },
    {
      "inputs": [],
      "name": "withdraw",
      "outputs": [],
      "stateMutability": "nonpayable",
      "type": "function"
    },
    {
      "stateMutability": "payable",
      "type": "receive"
    }
  ],
  "bytecode": "0x6080604052678ac7230489e80000600455603c6005553480156200002257600080fd5b5060405162001445380380620014458339818101604052810190620000489190620001b5565b6001600081905550600073ffffffffffffffffffffffffffffffffffffffff168173ffffffffffffffffffffffffffffffffffffffff1603620000c2576040517f08c379a0000000000000000000000000000000000000000000000000000000008152600401620000b99062000248565b60405180910390fd5b80600260006101000a81548173ffffffffffffffffffffffffffffffffffffffff021916908373ffffffffffffffffffffffffffffffffffffffff16021790555033600360006101000a81548173ffffffffffffffffffffffffffffffffffffffff021916908373ffffffffffffffffffffffffffffffffffffffff160217905550506200026a565b600080fd5b600073ffffffffffffffffffffffffffffffffffffffff82169050919050565b60006200017d8262000150565b9050919050565b6200018f8162000170565b81146200019b57600080fd5b50565b600081519050620001af8162000184565b92915050565b600060208284031215620001ce57620001cd6200014b565b5b6000620001de848285016200019e565b91505092915050565b600082825260208201905092915050565b7f546f6b656e20616464726573732069732061206e756c6c206164647265737300600082015250565b600062000230601f83620001e7565b91506200023d82620001f8565b602082019050919050565b60006020820190508181036000830152620002638162000221565b9050919050565b6111cb806200027a6000396000f3fe6080604052600436106100ab5760003560e01c80638d77eba5116100645780638d77eba5146101c85780638da5cb5b146102075780639556da3b146102325780639c2814301461023c578063ae04d45d14610267578063f74337d414610290576100eb565b80630d668087146100f057806312065fe01461011b5780632c4d844a146101465780633ccfd60b1461015d5780636e93152a1461017457806381d2fd9c1461019f576100eb565b366100eb577fe1fffcc4923d04b559f4d29a8bfc6cda04eb5b0d3c460751c2402c5c5cc9109c33346040516100e1929190610be5565b60405180910390a1005b600080fd5b3480156100fc57600080fd5b506101056102bb565b6040516101129190610c0e565b60405180910390f35b34801561012757600080fd5b506101306102c1565b60405161013d9190610c0e565b60405180910390f35b34801561015257600080fd5b5061015b610364565b005b34801561016957600080fd5b50610172610743565b005b34801561018057600080fd5b50610189610911565b6040516101969190610c88565b60405180910390f35b3480156101ab57600080fd5b506101c660048036038101906101c19190610cd4565b610937565b005b3480156101d457600080fd5b506101ef60048036038101906101ea9190610cd4565b6109e4565b6040516101fe93929190610d01565b60405180910390f35b34801561021357600080fd5b5061021c610a2e565b6040516102299190610d38565b60405180910390f35b61023a610a54565b005b34801561024857600080fd5b50610251610a56565b60405161025e9190610c0e565b60405180910390f35b34801561027357600080fd5b5061028e60048036038101906102899190610cd4565b610a5c565b005b34801561029c57600080fd5b506102a5610b02565b6040516102b29190610c0e565b60405180910390f35b60055481565b6000600260009054906101000a900473ffffffffffffffffffffffffffffffffffffffff1673ffffffffffffffffffffffffffffffffffffffff166370a08231306040518263ffffffff1660e01b815260040161031e9190610d38565b602060405180830381865afa15801561033b573d6000803e3d6000fd5b505050506040513d601f19601f8201168201806040525081019061035f9190610d68565b905090565b61036c610b0e565b60006103786001610b5d565b90506103846001610b6b565b600073ffffffffffffffffffffffffffffffffffffffff163373ffffffffffffffffffffffffffffffffffffffff16036103f3576040517f08c379a00000000000000000000000000000000000000000000000000000000081526004016103ea90610df2565b60405180910390fd5b600454600260009054906101000a900473ffffffffffffffffffffffffffffffffffffffff1673ffffffffffffffffffffffffffffffffffffffff166370a08231306040518263ffffffff1660e01b81526004016104519190610d38565b602060405180830381865afa15801561046e573d6000803e3d6000fd5b505050506040513d601f19601f820116820180604052508101906104929190610d68565b116104d2576040517f08c379a00000000000000000000000000000000000000000000000000000000081526004016104c990610e5e565b60405180910390fd5b600760003373ffffffffffffffffffffffffffffffffffffffff1673ffffffffffffffffffffffffffffffffffffffff16815260200190815260200160002054421015610554576040517f08c379a000000000000000000000000000000000000000000000000000000000815260040161054b90610eca565b60405180910390fd5b6000600660008381526020019081526020016000209050338160000160006101000a81548173ffffffffffffffffffffffffffffffffffffffff021916908373ffffffffffffffffffffffffffffffffffffffff1602179055506004548160010181905550428160020181905550600554426105d09190610f19565b600760003373ffffffffffffffffffffffffffffffffffffffff1673ffffffffffffffffffffffffffffffffffffffff168152602001908152602001600020819055506000600260009054906101000a900473ffffffffffffffffffffffffffffffffffffffff1673ffffffffffffffffffffffffffffffffffffffff1663a9059cbb336004546040518363ffffffff1660e01b8152600401610674929190610be5565b6020604051808303816000875af1158015610693573d6000803e3d6000fd5b505050506040513d601f19601f820116820180604052508101906106b79190610f85565b9050806106f9576040517f08c379a00000000000000000000000000000000000000000000000000000000081526004016106f090610ffe565b60405180910390fd5b7f28eb86fd03c9bd96a8a83e4a46ab2ad257b70cea893d98ad6d482e96aa25fad0833360045460405161072e9392919061101e565b60405180910390a1505050610741610b81565b565b600360009054906101000a900473ffffffffffffffffffffffffffffffffffffffff1673ffffffffffffffffffffffffffffffffffffffff163373ffffffffffffffffffffffffffffffffffffffff16146107d3576040517f08c379a00000000000000000000000000000000000000000000000000000000081526004016107ca906110c7565b60405180910390fd5b600260009054906101000a900473ffffffffffffffffffffffffffffffffffffffff1673ffffffffffffffffffffffffffffffffffffffff1663a9059cbb33600260009054906101000a900473ffffffffffffffffffffffffffffffffffffffff1673ffffffffffffffffffffffffffffffffffffffff166370a08231306040518263ffffffff1660e01b815260040161086d9190610d38565b602060405180830381865afa15801561088a573d6000803e3d6000fd5b505050506040513d601f19601f820116820180604052508101906108ae9190610d68565b6040518363ffffffff1660e01b81526004016108cb929190610be5565b6020604051808303816000875af11580156108ea573d6000803e3d6000fd5b505050506040513d601f19601f8201168201806040525081019061090e9190610f85565b50565b600260009054906101000a900473ffffffffffffffffffffffffffffffffffffffff1681565b600360009054906101000a900473ffffffffffffffffffffffffffffffffffffffff1673ffffffffffffffffffffffffffffffffffffffff163373ffffffffffffffffffffffffffffffffffffffff16146109c7576040517f08c379a00000000000000000000000000000000000000000000000000000000081526004016109be906110c7565b60405180910390fd5b670de0b6b3a7640000816109db91906110e7565b60048190555050565b60066020528060005260406000206000915090508060000160009054906101000a900473ffffffffffffffffffffffffffffffffffffffff16908060010154908060020154905083565b600360009054906101000a900473ffffffffffffffffffffffffffffffffffffffff1681565b565b60045481565b600360009054906101000a900473ffffffffffffffffffffffffffffffffffffffff1673ffffffffffffffffffffffffffffffffffffffff163373ffffffffffffffffffffffffffffffffffffffff1614610aec576040517f08c379a0000000000000000000000000000000000000000000000000000000008152600401610ae3906110c7565b60405180910390fd5b603c81610af991906110e7565b60058190555050565b60018060000154905081565b600260005403610b53576040517f08c379a0000000000000000000000000000000000000000000000000000000008152600401610b4a90611175565b60405180910390fd5b6002600081905550565b600081600001549050919050565b6001816000016000828254019250508190555050565b6001600081905550565b600073ffffffffffffffffffffffffffffffffffffffff82169050919050565b6000610bb682610b8b565b9050919050565b610bc681610bab565b82525050565b6000819050919050565b610bdf81610bcc565b82525050565b6000604082019050610bfa6000830185610bbd565b610c076020830184610bd6565b9392505050565b6000602082019050610c236000830184610bd6565b92915050565b6000819050919050565b6000610c4e610c49610c4484610b8b565b610c29565b610b8b565b9050919050565b6000610c6082610c33565b9050919050565b6000610c7282610c55565b9050919050565b610c8281610c67565b82525050565b6000602082019050610c9d6000830184610c79565b92915050565b600080fd5b610cb181610bcc565b8114610cbc57600080fd5b50565b600081359050610cce81610ca8565b92915050565b600060208284031215610cea57610ce9610ca3565b5b6000610cf884828501610cbf565b91505092915050565b6000606082019050610d166000830186610bbd565b610d236020830185610bd6565b610d306040830184610bd6565b949350505050565b6000602082019050610d4d6000830184610bbd565b92915050565b600081519050610d6281610ca8565b92915050565b600060208284031215610d7e57610d7d610ca3565b5b6000610d8c84828501610d53565b91505092915050565b600082825260208201905092915050565b7f416464726573732063616e6e6f742062652061207a65726f2061646472657373600082015250565b6000610ddc602083610d95565b9150610de782610da6565b602082019050919050565b60006020820190508181036000830152610e0b81610dcf565b9050919050565b7f4e6f7420656e6f75676820746f6b656e73000000000000000000000000000000600082015250565b6000610e48601183610d95565b9150610e5382610e12565b602082019050919050565b60006020820190508181036000830152610e7781610e3b565b9050919050565b7f506c656173652074727920616761696e20696e2031206d696e75746500000000600082015250565b6000610eb4601c83610d95565b9150610ebf82610e7e565b602082019050919050565b60006020820190508181036000830152610ee381610ea7565b9050919050565b7f4e487b7100000000000000000000000000000000000000000000000000000000600052601160045260246000fd5b6000610f2482610bcc565b9150610f2f83610bcc565b9250828201905080821115610f4757610f46610eea565b5b92915050565b60008115159050919050565b610f6281610f4d565b8114610f6d57600080fd5b50565b600081519050610f7f81610f59565b92915050565b600060208284031215610f9b57610f9a610ca3565b5b6000610fa984828501610f70565b91505092915050565b7f5472616e73616374696f6e206e6f74207375636365737366756c000000000000600082015250565b6000610fe8601a83610d95565b9150610ff382610fb2565b602082019050919050565b6000602082019050818103600083015261101781610fdb565b9050919050565b60006060820190506110336000830186610bd6565b6110406020830185610bbd565b61104d6040830184610bd6565b949350505050565b7f4f6e6c79206f776e65722063616e2063616c6c20746869732066756e6369746960008201527f6f6e000000000000000000000000000000000000000000000000000000000000602082015250565b60006110b1602283610d95565b91506110bc82611055565b604082019050919050565b600060208201905081810360008301526110e0816110a4565b9050919050565b60006110f282610bcc565b91506110fd83610bcc565b925082820261110b81610bcc565b9150828204841483151761112257611121610eea565b5b5092915050565b7f5265656e7472616e637947756172643a207265656e7472616e742063616c6c00600082015250565b600061115f601f83610d95565b915061116a82611129565b602082019050919050565b6000602082019050818103600083015261118e81611152565b905091905056fea2646970667358221220a2ce72249592d2b54e9bde416b6013bbf8eafb2100edc89c960c7b4551d0e6f064736f6c63430008110033",
  "linkReferences": {},
  "deployedLinkReferences": {}
}